S0120000547269616C506F7765722E7372656309
S11300000C9434000C9446000C9446000C94460066
S11300100C9446000C9446000C9446000C94460044
S11300200C9446000C9446000C9446000C94460034
S11300300C9446000C9446000C9446000C94460024
S11300400C9446000C9446000C9446000C94460014
S11300500C9446000C9453000C9446000C944600F7
S11300600C9446000C94460011241FBECFEFD8E038
S1130070DEBFCDBF22E0A0E0B1E001C01D92A239F5
S1130080B207E1F70E9499000C94DC060C9400007E
S1130090ECE7F0E0808180648083EAE7F0E080812F
S11300A08E68808308951F920F920FB60F921124C9
S11300B08F939F93EF93FF93E0910001F0910101DF
S11300C08091780090917900EE0FFF1FEE5FFE4F54
S11300D09183808380910001909101010196909316
S11300E0010180930001EAE7F0E08081806480836D
S11300F0FF91EF919F918F910F900FBE0F901F90E2
S113010018951092C50087E68093C400E1ECF0E0F6
S1130110808188608083E2ECF0E080818660808367
S11301200895E0ECF0E0908195FFFDCF8093C60048
S11301300895CF93DF93CDB7DEB70E9481000E946C
S11301404800EAE7F0E08081806480837894612C41
S1130150712C0F2EF8EE4F2EF3E05F2EF02D0F2EA4
S1130160F4E62F2E312CF02D8091000190910101A5
S1130170883C9105CCF38DB69EB6F894809100012D
S113018090910101880F991F880F991F2DB73EB7D1
S1130190281B390B0FB6F8943EBF0FBE2DBF8DB789
S11301A09EB701967C01809100019091010118167F
S11301B01906A4F567018301F801EE0FFF1FEE5F36
S11301C0FE4F6081718180E090E00E94A90220E0EE
S11301D030E040EA50E40E94370320E030E040E899
S11301E05AE30E94370320E030E040E250E40E94EA
S11301F0940123E333E343E151E40E943703F6011E
S113020061937193819391936F010F5F1F4F80915D
S11302100001909101010817190774F280910001FF
S1130220909101011816190664F58301A12CB12CD3
S1130230C12CD12CF70161917191819191917F0130
S11302409B01AC010E9437039B01AC016A2D7B2DFD
S11302508C2D9D2D0E949501A62EB72EC82ED92E29
S1130260F801EE0FFF1FEE5FFE4F118210820F5F49
S11302701F4F809100019091010108171907D4F2D2
S113028004C0A12CB12CC12CD12C6091000170911F
S11302900101072E000C880B990B0E94AB029B01F5
S11302A0AC016A2D7B2D8C2D9D2D0E9401020E9494
S11302B0AA0320E030E048EC52E40E9437030E9495
S11302C073027092010160920001CB01B2010E949D
S11302D0FF038C01862F80630E949100C801B10145
S11302E00E94FF038C01862F80620E949100C80146
S11302F06AE070E00E94FF03182F862F80610E943D
S11303009100812F0E949100FFEF29E638E1F1501E
S113031020403040E1F700C0000078940FB6F89414
S11303209EBE0FBE8DBE20CF5058BB27AA270E9469
S1130330AC010C94FD020E94EF0238F00E94F60218
S113034020F039F49F3F19F426F40C94EC020EF4D7
S1130350E095E7FB0C94E602E92F0E940E0358F3A4
S1130360BA17620773078407950720F079F4A6F596
S11303700C9430030EF4E0950B2EBA2FA02D0B0134
S1130380B90190010C01CA01A0011124FF27591BD6
S113039099F0593F50F4503E68F11A16F040A22FDC
S11303A0232F342F4427585FF3CF4695379527954D
S11303B0A795F0405395C9F77EF41F16BA0B620B4C
S11303C0730B840BBAF09150A1F0FF0FBB1F661F93
S11303D0771F881FC2F70EC0BA0F621F731F841FD6
S11303E048F4879577956795B795F7959E3F08F0FC
S11303F0B0CF9395880F08F09927EE0F97958795BE
S113040008950E9415020C94FD020E94F60258F011
S11304100E94EF0240F029F45F3F29F00C94E602B9
S113042051110C9431030C94EC020E940E0368F3F6
S11304309923B1F3552391F3951B550BBB27AA2799
S113044062177307840738F09F5F5F4F220F331FD3
S1130450441FAA1FA9F335D00E2E3AF0E0E832D09B
S113046091505040E695001CCAF72BD0FE2F29D09E
S1130470660F771F881FBB1F261737074807AB0770
S1130480B0E809F0BB0B802DBF01FF2793585F4FE5
S11304903AF09E3F510578F00C94E6020C94310337
S11304A05F3FE4F3983ED4F3869577956795B795C7
S11304B0F7959F5FC9F7880F911D9695879597F9D2
S11304C00895E1E0660F771F881FBB1F621773074B
S11304D08407BA0720F0621B730B840BBA0BEE1F60
S11304E088F7E09508950E947A026894B1110C94FB
S11304F0310308950E94160388F09F5798F0B92F8E
S11305009927B751B0F0E1F0660F771F881F991F44
S11305101AF0BA95C9F714C0B13091F00E943003B3
S1130520B1E008950C943003672F782F8827B85FC3
S113053039F0B93FCCF3869577956795B395D9F79C
S11305403EF490958095709561957F4F8F4F9F4FA6
S11305500895E89409C097FB3EF4909580957095B2
S113056061957F4F8F4F9F4F9923A9F0F92F96E9FB
S1130570BB279395F695879577956795B795F11170
S1130580F8CFFAF4BB0F11F460FF1BC06F5F7F4F0D
S11305908F4F9F4F16C0882311F096E911C077231F
S11305A021F09EE8872F762F05C0662371F096E828
S11305B0862F70E060E02AF09A95660F771F881FF7
S11305C0DAF7880F9695879597F9089597F99F67B5
S11305D080E870E060E008959FEF80EC08950024C7
S11305E00A941616170618060906089500240A9494
S11305F012161306140605060895092E0394000C1A
S113060011F4882352F0BB0F40F4BF2B11F460FFA8
S113061004C06F5F7F4F8F4F9F4F089557FD9058D1
S1130620440F551F59F05F3F71F04795880F97FBB2
S1130630991F61F09F3F79F087950895121613066C
S11306401406551FF2CF4695F1DF08C0161617069B
S11306501806991FF1CF86957105610508940895D0
S1130660E894BB2766277727CB0197F908950E9462
S11306704A030C94FD020E94EF0238F00E94F60235
S113068020F0952311F00C94E6020C94EC02112452
S11306900C9431030E940E0370F3959FC1F3950FE0
S11306A050E0551F629FF001729FBB27F00DB11DF2
S11306B0639FAA27F00DB11DAA1F649F6627B00D82
S11306C0A11D661F829F2227B00DA11D621F739F6B
S11306D0B00DA11D621F839FA00D611D221F749F79
S11306E03327A00D611D231F849F600D211D822FC0
S11306F0762F6A2F11249F5750409AF0F1F08823E7
S11307004AF0EE0FFF1FBB1F661F771F881F915013
S11307105040A9F79E3F510580F00C94E6020C94DA
S113072031035F3FE4F3983ED4F38695779567955C
S1130730B795F795E7959F5FC1F7FE2B880F911D3D
S11307409695879597F9089519F416F40C94EC028C
S11307500C94EA030E941603B8F39923C9F3B6F381
S11307609F57550B87FF0E94F8030024A0E640EA38
S1130770900180585695979528F4805C660F771FF2
S1130780881F20F026173707480730F4621B730BC5
S1130790840B202931294A2BA695179407942025E8
S11307A031254A2758F7660F771F881F20F0261730
S11307B03707480730F4620B730B840B200D311D8F
S11307C0411DA09581F7B901842F9158880F969502
S11307D0879508959F3F31F0915020F48795779540
S11307E06795B795880F911D9695879597F9089504
S11307F091505040660F771F881FD2F7089597FBDA
S1130800072E16F4009407D077FD09D00E94130434
S113081007FC05D03EF4909581959F4F08957095FF
S113082061957F4F0895AA1BBB1B51E107C0AA1F06
S1130830BB1FA617B70710F0A61BB70B881F991F7D
S11308405A95A9F780959095BC01CD010895ACE027
S1130850B0E0EDE2F4E00C94A5067C016B018A01A2
S1130860FC0117821682838181FFBDC1CE010196EE
S11308704C01F7019381F60193FD859193FF8191DA
S11308806F01882309F4ABC1853239F493FD859156
S113089093FF81916F01853229F4B70190E00E94A2
S11308A00F06E7CF512C312C20E02032A0F48B32FC
S11308B069F030F4803259F0833269F420612CC03D
S11308C08D3239F0803339F4216026C022602460EF
S11308D023C0286021C027FD27C030ED380F3A30EF
S11308E078F426FF06C0FAE05F9E300D1124532EE3
S11308F013C08AE0389E300D1124332E20620CC0C0
S11309008E3221F426FD6BC1206406C08C3611F4AE
S1130910206802C0883641F4F60193FD859193FF67
S113092081916F018111C1CF982F9F7D9554933090
S113093028F40C5F1F4FFFE3F9830DC0833631F0B9
S1130940833771F0833509F05BC022C0F8018081E0
S113095089830E5F1F4F44244394512C540115C0C6
S11309603801F2E06F0E711CF801A080B18026FFFF
S113097003C0652D70E002C06FEF7FEFC5012C87C7
S11309800E9404062C0183012C852F77222E17C088
S11309903801F2E06F0E711CF801A080B18026FFCF
S11309A003C0652D70E002C06FEF7FEFC5012C8797
S11309B00E94F9052C012C852068222E830123FC3A
S11309C01BC0832D90E048165906B0F4B70180E2AD
S11309D090E00E940F063A94F4CFF50127FC85912C
S11309E027FE81915F01B70190E00E940F0631104C
S11309F03A94F1E04F1A51084114510471F7E5C0DB
S1130A00843611F0893639F5F80127FF07C0608173
S1130A107181828193810C5F1F4F08C06081718155
S1130A20072E000C880B990B0E5F1F4F2F76722E2A
S1130A3097FF09C090958095709561957F4F8F4F72
S1130A409F4F2068722E2AE030E0A4010E944706DE
S1130A50A82EA81844C0853729F42F7EB22E2AE088
S1130A6030E025C0F22FF97FBF2E8F36C1F018F485
S1130A70883579F0B4C0803719F0883721F0AFC0D9
S1130A802F2F2061B22EB4FE0DC08B2D8460B82EA2
S1130A9009C024FF0AC09F2F9660B92E06C028E023
S1130AA030E005C020E130E002C020E132E0F8018E
S1130AB0B7FE07C060817181828193810C5F1F4FF3
S1130AC006C06081718180E090E00E5F1F4FA40139
S1130AD00E944706A82EA818FB2DFF777F2E76FECE
S1130AE00BC0372D3E7FA51450F474FE0AC072FC6F
S1130AF008C0372D3E7E05C0BA2C372D03C0BA2C52
S1130B0001C0B52C34FF0DC0FE01EA0DF11D80813A
S1130B10803311F4397E09C032FF06C0B394B39414
S1130B2004C0832F867809F0B39433FD13C030FFDB
S1130B3006C05A2CB31418F4530C5B18B32CB3141A
S1130B4068F4B70180E290E03C870E940F06B394FA
S1130B503C85F5CFB31410F43B1801C0312C34FF9D
S1130B6012C0B70180E390E03C870E940F063C85E9
S1130B7032FF17C031FD03C088E790E002C088E56A
S1130B8090E0B7010CC0832F867859F031FF02C082
S1130B908BE201C080E237FD8DE2B70190E00E9454
S1130BA00F06A51438F4B70180E390E00E940F0605
S1130BB05A94F7CFAA94F401EA0DF11D8081B7018C
S1130BC090E00E940F06A110F5CF332009F451CE16
S1130BD0B70180E290E00E940F063A94F6CFF70145
S1130BE08681978102C08FEF9FEF2C96E2E10C94EF
S1130BF0C106FC010590615070400110D8F7809542
S1130C0090958E0F9F1F0895FC01615070400190D4
S1130C100110D8F7809590958E0F9F1F08950F931C
S1130C201F93CF93DF93FB01238121FD03C08FEF3B
S1130C309FEF28C022FF16C0468157812481358149
S1130C404217530744F4A081B1819D012F5F3F4FA8
S1130C50318320838C93268137812F5F3F4F3783E5
S1130C60268310C0EB01092F182F0084F185E02D95
S1130C700995892BE1F68E819F8101969F838E834E
S1130C80812F902FDF91CF911F910F910895FA0139
S1130C90AA27283051F1203181F1E8946F936E7FB7
S1130CA06E5F7F4F8F4F9F4FAF4FB1E03ED0B4E0A8
S1130CB03CD0670F781F891F9A1FA11D680F791FE9
S1130CC08A1F911DA11D6A0F711D811D911DA11DFA
S1130CD020D009F468943F912AE0269F112430190A
S1130CE0305D3193DEF6CF010895462F4770405DA5
S1130CF04193B3E00FD0C9F7F6CF462F4F70405D54
S1130D004A3318F0495D31FD4052419302D0A9F7AE
S1130D10EACFB4E0A6959795879577956795BA95A8
S1130D20C9F700976105710508959B01AC010A2E6E
S1130D3006945795479537952795BA95C9F7620F45
S1130D40731F841F951FA01D08952F923F924F92E9
S1130D505F926F927F928F929F92AF92BF92CF9247
S1130D60DF92EF92FF920F931F93CF93DF93CDB750
S1130D70DEB7CA1BDB0B0FB6F894DEBF0FBECDBFC8
S1130D8009942A88398848885F846E847D848C8499
S1130D909B84AA84B984C884DF80EE80FD800C81A2
S1130DA01B81AA81B981CE0FD11D0FB6F894DEBF85
S10F0DB00FBECDBFED010895F894FFCFF5
S9030000FC
